:020000040800F2
:1000000000000520211A0008991700089B17000816
:100010009D1700089F170008A117000800000000A6
:10002000000000000000000000000000A31700080E
:10003000A517000800000000A7170008A91700086E
:10004000711A0008711A0008711A0008711A000864
:10005000711A0008711A0008711A0008711A000854
:10006000711A0008711A0008711A0008711A000844
:10007000711A0008711A0008711A0008711A000834
:10008000711A0008711A0008711A0008711A000824
:10009000711A0008711A0008711A0008711A000814
:1000A000711A0008711A0008711A0008711A000804
:1000B000711A0008711A0008711A0008711A0008F4
:1000C000711A0008711A0008711A0008711A0008E4
:1000D000711A0008711A0008711A0008711A0008D4
:1000E000711A0008711A0008711A0008711A0008C4
:1000F000711A0008711A0008711A0008711A0008B4
:10010000711A0008711A0008711A0008711A0008A3
:10011000711A0008711A0008711A0008711A000893
:10012000711A0008711A0008711A0008711A000883
:10013000711A0008711A0008711A0008711A000873
:10014000711A0008711A0008711A0008711A000863
:10015000711A0008711A0008711A0008711A000853
:10016000711A0008711A0008711A0008711A000843
:10017000711A0008711A0008000000000000000059
:10018000711A0008711A0008711A0008711A000823
:10019000711A0008711A000800000000711A0008A6
:1001A000711A0008711A0008000000000000000029
:1001B000711A00080000000000000000711A000819
:1001C000711A0008711A0008711A0008711A0008E3
:0801D000711A0008711A000801
:1001D80010B5054C237833B9044B13B10448AFF379
:1001E80000800123237010BD0C00002000000000D7
:1001F800CC1A000808B5034B1BB103490348AFF3F9
:10020800008008BD0000000010000020CC1A000883
:1002180053B94AB9002908BF00281CBF4FF0FF3165
:100228004FF0FF3000F07AB9ADF1080C6DE904CE5B
:1002380000F006F8DDF804E0DDE9022304B07047B9
:100248002DE9F0478C460D460446089E002B51D1F7
:100258008A4217466DD9B2FA82FEBEF1000F0BD062
:10026800CEF1200C01FA0EF520FA0CFC02FA0EF77A
:100278004CEA050C00FA0EF44FEA174A250CBCFBB1
:10028800FAF81FFA87F90AFB18CC45EA0C4508FB6F
:1002980009F3AB420AD9ED1908F1FF3280F0238146
:1002A800AB4240F22081A8F102083D44ED1AA4B205
:1002B800B5FBFAF00AFB105544EA054400FB09F9BE
:1002C800A14509D9E41900F1FF3380F00A81A1455D
:1002D80040F2078102383C44A4EB090440EA084094
:1002E8000021002E61D024FA0EF4002334607360DC
:1002F800BDE8F0878B4207D9002E54D0002186E84C
:1003080021000846BDE8F087B3FA83F1002940F0E0
:100318008E80AB4202D3824200F2FA80841A65EBE7
:1003280003050120AC46002E3FD086E81010BDE83A
:10033800F08712B90127B7FBF2F7B7FA87FEBEF1CB
:10034800000F34D1EB1B3A0C1FFA87FC0121B3FBD9
:10035800F2F8250C02FB183345EA03450CFB08F3B9
:10036800AB4207D9ED1908F1FF3002D2AB4200F2D7
:10037800D1808046ED1AA3B2B5FBF2F002FB10550E
:1003880043EA05440CFB00FCA44507D9E41900F135
:10039800FF3302D2A44500F2B8801846A4EB0C043F
:1003A80040EA08409DE731463046BDE8F087CEF187
:1003B800200405FA0EF307FA0EF720FA04F83A0CAF
:1003C80025FA04F448EA0308B4FBF2F14FEA1845A9
:1003D80002FB11441FFA87FC45EA044501FB0CF3B4
:1003E800AB4200FA0EF409D9ED1901F1FF3080F0A3
:1003F8008A80AB4240F2878002393D44EB1A1FFAEB
:1004080088F5B3FBF2F002FB103345EA034500FB25
:100418000CF3AB4207D9ED1900F1FF386FD2AB42AC
:100428006DD902383D44EB1A40EA01418FE7C1F12A
:10043800200722FA07F88B4005FA01F448EA03037B
:1004480020FA07FE4FEA134CFD404EEA040EB5FBB6
:10045800FCF94FEA1E440CFB19551FFA83F844EACD
:10046800054509FB08F4AC4202FA01F200FA01FA68
:1004780008D9ED1809F1FF3043D2AC4241D9A9F1AE
:1004880002091D442D1B1FFA8EFEB5FBFCF00CFB68
:1004980010554EEA054400FB08F8A04507D9E418B2
:1004A80000F1FF3529D2A04527D902381C4440EA7B
:1004B8000940A4EB0804A0FB02894C45C6464D46FA
:1004C80015D312D056B1BAEB0E0364EB050404FA47
:1004D80007F7CB401F43CC40376074600021BDE86C
:1004E800F0871846F8E69046E0E6C245EAD2B8EB4F
:1004F800020E69EB03050138E4E72846D7E74046D2
:1005080091E78146BEE7014678E702383C4445E773
:10051800084608E7A8F102083D442BE7704700BFEA
:1005280038B50E4A0E4B054618784FF47A73B3FB6C
:10053800F0F31068B0FBF3F000F0D0F9044658B9B6
:100548000F2D09D8024629464FF0FF3000F092F9E6
:10055800044B20461D6038BD012038BD080000202E
:10056800000000200400002008B50B4B1A6842F474
:1005780000721A601A6842F480621A601A6842F4BB
:1005880080721A60032000F063F90020FFF7C8FFAB
:1005980001F0E2F8002008BD003C0240034A044B89
:1005A80011681B780B441360704700BF28000020B7
:1005B80000000020014B1868704700BF2800002089
:1005C80038B50446002800F09B80056C25B900F07A
:1005D800ADFF656484F83C50236CDB0600F18E8027
:1005E800236C23F4885323F0020343F002032364AB
:1005F800444B5A6822F440325A605A6861680A4388
:100608005A60236821695A6822F480725A605A68CD
:1006180042EA01225A605A68A16822F040725A6080
:100628005A680A435A609A68E16822F400629A603C
:100638009A680A439A603449A26A8A4252D09968F1
:1006480021F07061996099680A439A609A68E16A32
:1006580022F040529A609A680A439A609A68217E0A
:1006680022F002029A609A6842EA41029A6094F87B
:100678002020002A3ED05A68616A42F400625A601B
:100688005A6822F460425A605A68013942EA413293
:100698005A60DA6AE16922F47002DA62DA6A0139C8
:1006A80042EA0152DA629A6894F8301022F4007231
:1006B8009A609A6842EA41229A609A68616922F4CB
:1006C80080629A609A68002042EA81229A60606497
:1006D800236C23F0030343F001032364002384F80D
:1006E8003C3038BD9A6822F070629A609A6822F0AD
:1006F8004052B2E75A6822F40062C9E70120EDE7E8
:10070800012038BD002301400100000FF7B5002388
:10071800019390F83C30012B6ED00D6804688A680C
:100728000123092D80F83C30AEB22AD906EB4603E6
:10073800E7681E3B4FF0070E0EFA03FE27EA0E0786
:10074800E760E76802FA03F33B43E3604A68062A76
:100758004FEA820325D81344676B591F1F238B4028
:1007680027EA03036363626B06FA01F111436163CD
:10077800324B9C4234D0002380F83C30184603B0FA
:10078800F0BD276905EB45034FF0070E0EFA03FE8F
:1007980027EA0E072761276902FA03F33B4323611F
:1007A800D4E70C2A0ED81344216BA3F123021F238C
:1007B800934021EA03032363236B06FA02F21A43E8
:1007C8002263D5E71344E16A413B1F229A4021EA9C
:1007D8000202E262E26A06FA03F11143E162C7E744
:1007E800122D0BD1164B5A6822F400025A605A682F
:1007F80042F480025A60BEE70220C0E7114B9D42D6
:1008080001D0112DB7D10E4B5A6822F480025A60DC
:100818005A6842F400025A600A4B9D42ABD10A4B17
:100828000A4A1B68B3FBF2F20A2353430193019B64
:10083800002BA0D0019B013BF8E700BF002001403E
:1008480000230140120000100800002040420F0061
:10085800074AD36823F4E0631B041B0C43F0BF630F
:10086800000243F4003300F4E0600343D3607047B0
:1008780000ED00E0174B30B5DC68C4F30224C4F186
:100888000703251D042B28BF0423062D4FF001055F
:1008980005FA03F303F1FF338CBF033C002419402E
:1008A800A14005FA04F4013C2240002842EA010272
:1008B8004FEA0212ADBF00F1604000F00F00064B96
:1008C80000F56140B5BFD2B2D2B21A5480F8002305
:1008D80030BD00BF00ED00E014ED00E00138B0F1DC
:1008E800807F0AD2064B074A5860F02182F823100D
:1008F8000020072298601A6070470120704700BFE7
:1009080010E000E000ED00E02DE9F04F85B00B6845
:10091800DFF8A081654ADFF8A091019300234FF02A
:10092800010E019C0EFA03FE0EEA0406B64540F0DD
:10093800AA804C6824F01007022F16D14FEAD30A78
:1009480000EB8A0A03F0070BDAF820504FEA8B0B0A
:100958004FF00F0C0CFA0BFC25EA0C0C0D6905FA8C
:100968000BF545EA0C05CAF820504FEA430A03255F
:10097800D0F800B005FA0AF5ED4304F0030C0BEAD1
:10098800050B0CFA0AFC013F4CEA0B0C012FC0F8CE
:1009980000C011D8876807EA050BCF6807FA0AFC78
:1009A8004CEA0B078760476827EA0E0EC4F3001766
:1009B8009F4047EA0E074760C7683D408F6807FABF
:1009C8000AF73D43C560E5005DD54FF0000BCDF853
:1009D8000CB0D8F84470364D47F48047C8F84470D6
:1009E800D8F8447007F480470397039F23F0030760
:1009F80007F1804707F59C3703F0030CD7F808A0E8
:100A08004FEA8C0C4FF00F0E0EFA0CFEA8422AEAA1
:100A18000E0E3FD005F58065A8423DD005F58065EE
:100A2800A8423BD005F58065A84239D005F5806518
:100A3800A84237D0484537D005F50065A84214BF0D
:100A48000725062505FA0CF545EA0E05BD6015686B
:100A5800F74314F4803F0CBF3D403543156055689B
:100A680014F4003F0CBF3D4035435560956814F4BD
:100A7800801F0CBF3D4035439560D568A40254BF24
:100A88003D403543D5600133102B7FF448AF05B0A6
:100A9800BDE8F08F5D46D5E70125D3E70225D1E70C
:100AA8000325CFE70425CDE70525CBE7003C01402A
:100AB800000002400038024000140240134908B503
:100AC8008B6803F00C03042B03D0082B03D01048C9
:100AD80008BD104808BD4A684B68496813F480038C
:100AE80014BF0C480A48C1F3881118BF002302F04C
:100AF8003F02A1FB0001FFF78BFB044B5B68C3F3CC
:100B0800014301335B00B0FBF3F008BD003802403D
:100B18000024F40040787D012DE9F0410D4604469B
:100B280010B90120BDE8F081444B1A6802F00F02A9
:100B38008A4228D321688F072DD4C80740D43F4B59
:100B48001A6802F00F02954266D3226851076CD4E6
:100B5800130707D53A4A2169936823F4604343EAA7
:100B6800C1039360FFF7AAFF354B364A9B68C3F36E
:100B78000313D35CD840344B18600020FFF7D0FC37
:100B88000020BDE8F081CAB21A701B6803F00F0399
:100B98009942C6D1CEE72A4B11F0040F1EBF9A68BE
:100BA80042F4E0529A600E0742BF9A6842F46042EB
:100BB8009A609A68A06822F0F00202439A60BCE743
:100BC80062681F4B012A1DD11B6813F4003FA8D08F
:100BD8001B4EB36823F003031343B360FFF7EAFC2B
:100BE80041F288380746B368626803F00C03B3EB38
:100BF800820FA4D0FFF7DEFCC01B4045F3D90320C9
:100C0800BDE8F081911E01291B6802D813F0007F0E
:100C1800DDE713F0020FDAE7EAB21A701B6803F097
:100C28000F039D427FF47DAF8FE70549E0688B682D
:100C380023F4E05303438B608AE700BF003C024083
:100C480000380240E41A00080800002003682DE973
:100C5800F341DD07044610D4236898075BD4236862
:100C68001A0700F19D8023685B0700F1BB80A26929
:100C7800002A40F01C81002015E0A74B9A6802F07A
:100C88000C02042A07D09A6802F00C02082A0DD137
:100C98005B6859020AD5A04B1B689A03DCD56368C8
:100CA800002BD9D1012002B0BDE8F08163689A4DCC
:100CB800B3F5803F11D12B6843F480332B60FFF7E5
:100CC80079FC954D06462B689B03C5D4FFF772FC4B
:100CD800801B6428F7D90320E5E7B3F5A02F04D1DA
:100CE8002B6843F480232B60E5E72A6822F48032DE
:100CF8002A602A6822F480222A60002BDFD1FFF7BD
:100D080059FC06462B689F03A6D5FFF753FC801BAA
:100D18006428F7D9DFE7804B9A6812F00C0F07D0E8
:100D28009A6802F00C02082A11D15B685E020ED4A0
:100D3800794B1A68950702D5E268012AB2D11A6878
:100D4800216922F0F80242EAC1021A6087E7E268E4
:100D5800724BB2B101221A60FFF72CFC6E4D0646A9
:100D68002B68980707D52B68226923F0F80343EA14
:100D7800C2032B6073E7FFF71DFC801B0228EFD925
:100D8800A9E71A60FFF716FC634D06462B6899071A
:100D98007FF565AFFFF70EFC801B0228F6D99AE7AE
:100DA80062695F4B7AB101221A60FFF703FC5A4D62
:100DB80006466B6F9F073FF556AFFFF7FBFB801B9F
:100DC8000228F6D987E71A60FFF7F4FB524D06466A
:100DD8006B6F98077FF547AFFFF7ECFB801B022886
:100DE800F6D978E74C4B1A6C12F0805228D1019250
:100DF8001A6C42F080521A641B6C03F08053019302
:100E0800019B0126474D2B68D9051BD5A368424D88
:100E1800012B27D12B6F43F001032B67FFF7CAFB88
:100E28003D4D074641F288382B6F9B0739D5002E78
:100E38003FF41DAF384A136C23F08053136416E750
:100E48000026DFE72B6843F480732B60FFF7B2FBC3
:100E580007462B68DA05D9D4FFF7ACFBC01B02287C
:100E6800F7D938E7052B04D12B6F43F004032B6720
:100E7800D0E72A6F22F001022A672A6F22F00402C3
:100E88002A67002BCAD1FFF795FB41F2883807463D
:100E98002B6F9807CBD5FFF78DFBC01B4045F7D9C3
:100EA80019E7FFF787FBC01B4045BDD913E71A4D6B
:100EB800AB6803F00C03082B3FF4F4AE1A4E002382
:100EC800022A336038D1FFF775FB07462B68990172
:100ED8002CD4226AE3691343626A43EA8213E26A02
:100EE80043EA0263226B43EA0273A26A0A4C52087D
:100EF800013A43EA02436B6001233360FFF75AFB70
:100F0800054623689A013FF5B6AEFFF753FB401B31
:100F18000228F6D9DFE600BF003802400000474249
:100F2800800E47420070004060004742FFF742FBD6
:100F3800C01B0228CAD9CEE6FFF73CFB04462B6843
:100F48009B017FF598AEFFF735FB001B0228F6D909
:100F5800C1E600BF10B50446002836D000238362DE
:100F680090F8513003F0FF021BB980F8502000F0D0
:100F7800A7FB2168A068A269022384F851300B6896
:100F880023F040030B6063680343E0680343206970
:100F9800034360690343E0690343206A0343A06A8B
:100FA800034302F4007003430B60120C636A02F0FF
:100FB80004021A434A60CB6923F40063CB61002022
:100FC8000123606584F8513010BD012010BD000078
:100FD800036A23F001030362036A70B544688269F7
:100FE8000D6822F073022A438D6823F002032B4315
:100FF8000E4DA84202D00E4EB04210D1CE6823F05A
:1010080008033343A84223F0040302D0084DA84242
:1010180005D14D698E6924F4407435432C434460EE
:1010280082614A684263036270BD00BF00000140EC
:1010380000040140036A23F480730362036A70B5F5
:101048004468C2690D6822F073022A438D6823F44C
:10105800007343EA0523114DA84203D005F58065C6
:10106800A84214D1CD6823F4006343EA05230B4D4D
:10107800A84223F4806303D005F58065A84206D111
:101088004D698E6924F44054354344EA051444609C
:10109800C2614A68C263036270BD00BF00000140BC
:1010A800036A23F480530362036A30B54468C26953
:1010B8000D6822F4E64242EA05228D6823F40053C3
:1010C80043EA0533084DA84203D005F58065A842D8
:1010D80004D14D6924F4804444EA85144460C26113
:1010E8004A680264036230BD00000140304A036868
:1010F800904212D0B0F1804F0FD0A2F57C429042BE
:101108000BD002F58062904207D002F580629042CF
:1011180003D002F57842904219D14A6823F070034F
:101128001343234A904229D0B0F1804F26D0A2F52C
:101138007C42904222D002F5806290421ED002F595
:10114800806290421AD002F57842904216D0194A2D
:10115800904213D002F5806290420FD002F580626F
:1011680090420BD0A2F59832904207D002F58062E7
:10117800904203D002F58062904203D1CA6823F4FA
:10118800407313434A6923F08003134303608B6859
:10119800C3620B688362064B984203D003F58063F1
:1011A800984201D10B69036301234361704700BF73
:1011B800000001400040014010B50446A0B190F87D
:1011C8003D3003F0FF021BB980F83C2000F010FB13
:1011D800022384F83D302068211DFFF787FF012393
:1011E80084F83D30002010BD012010BD10B5044624
:1011F800A0B190F83D3003F0FF021BB980F83C2005
:1012080000F00CFB022384F83D302068211DFFF715
:101218006DFF012384F83D30002010BD012010BD72
:10122800036A23F010030362036A70B54468826995
:101238000D6822F4E64242EA05228D6823F0200375
:1012480043EA0513104DA84203D005F58065A8426E
:1012580014D1CD6823F0800343EA05130A4DA84250
:1012680023F0400303D005F58065A84206D14D69F7
:101278008E6924F44064354344EA850444608261FD
:101288004A688263036270BD0000014038B590F877
:101298003C30012B04464FF0020025D0012384F88E
:1012A8003C3084F83D000C2A18D8DFE802F0071714
:1012B80017171E1717172F17171740002068FFF763
:1012C80087FE236809699A6942F008029A619A6957
:1012D80022F004029A619A690A439A610123002064
:1012E80084F83D3084F83C0038BD2068FFF798FF4B
:1012F800236809699A6942F400629A619A6922F43A
:1013080080629A619A6942EA0122E6E72068FFF75B
:1013180091FE23680969DA6942F00802DA61DA693C
:1013280022F00402DA61DA690A43DA61D6E7206852
:10133800FFF7B6FE23680969DA6942F40062DA61E8
:10134800DA6922F48062DA61DA6942EA0122ECE7BA
:1013580010B584680A4324F47F4442EA03232343F4
:10136800836010BD90F83C30012B70B504464FF0F7
:10137800020019D084F83D002068012384F83C302D
:10138800836823F47F4323F0770383600B68402B43
:1013980065D015D8102B0CD007D853B101230020E5
:1013A80084F83D3084F83C0070BD202B01D0302BF0
:1013B800F4D1826843F0070322F0700213431AE065
:1013C800602B34D019D8502BE8D14A68CE68016A0E
:1013D800056A25F001050562836921F00A0123F0F9
:1013E800F00343EA06130A4383610262836823F029
:1013F800700343F057038360D0E7702B0CD0B3F52C
:10140800005FCBD1CB684A688968FFF7A1FF2268E3
:10141800936843F4804308E0CB684A688968FFF71B
:1014280097FF2268936843F077039360B6E74D68A7
:10143800CE68016A21F0100101628269036A22F410
:10144800704223F0A00343EA051342EA06328261A0
:101458000362836823F0700343F06703CBE74A68AD
:10146800CE68016A056A25F001050562836921F0E5
:101478000A0123F0F00343EA06130A438361026278
:10148800836823F0700343F04703B4E790F83C30D7
:10149800012B30B54FF0020314D0046880F83D30BA
:1014A8006268A3680D68496822F0700223F080031F
:1014B8000B432A436260A360012380F83D30002378
:1014C80080F83C30184630BD30B585B01022002178
:1014D800684600F0EFFA1248124B0024012580E814
:1014E8001800114B84600461047680F82040C462BF
:1014F8008362C460C56180F830404561FFF760F8D9
:1015080008B100F0B9F86946054802948DE8300042
:10151800FFF7FCF808B100F0AFF805B030BD00BF28
:101528002C000020002001400100000F10B50446E7
:1015380088B01422002103A800F0BCFA2268124BDC
:101548009A421ED103F58C33002101915A6C0F4841
:1015580042F480725A645A6C02F480720192019AC1
:1015680002911A6B42F001021A631B6B03F001032C
:101578000293029B4F23039303A903230493FFF7CA
:10158800C3F908B010BD00BF0020014000000240B0
:1015980084B0114B00220192196B41F0800119634C
:1015A800196B01F08001019101990292196B41F0C8
:1015B80001011963196B01F001010291029903926B
:1015C8001A6B42F002021A631B6B03F002030393C7
:1015D800039B04B0704700BF0038024010B594B0B8
:1015E8003422002107A800F065FA0021142202A87D
:1015F80000F060FA0024164B00941A6C42F08052F6
:101608001A641B6C03F080530093009B114B0194E8
:101618001A6842F440421A601B680D9403F4404370
:101628000193019B0223079301230A9307A8102320
:101638000B93FFF70BFB0F23214602A80293039499
:10164800049405940694FFF767FA14B010BD00BF20
:10165800003802400070004008B5FEF785FFFFF72C
:10166800BDFFFFF795FF00F009F800F049F9FFF713
:101678002BFF00F099F9FEE77047000008B50E4807
:101688000E4B4FF4827E80E8084000238360C360DD
:10169800036143614FF40072C36103624362836272
:1016A8000A238261C362FFF755FC18B1BDE8084000
:1016B800FFF7E2BF08BD00BF740000200030014002
:1016C800F0B5044689B01422002103A800F0F2F90D
:1016D80022681E4B9A4236D103F5843300240094C5
:1016E8005A6C1B4842F480525A645A6C02F4805275
:1016F8000092009A01941A6B42F001021A631A6B65
:1017080002F001020192019A02941A6B42F002025D
:101718001A631B6B03F002030293029B0227202328
:101728000326052503A90393049706960795FFF753
:10173800EBF8302303A9074803930497059406960A
:101748000795FFF7E1F809B0F0BD00BF0030014090
:10175800000002400004024082B00C4B00210091BE
:101768005A6C42F480425A645A6C02F480420092E5
:10177800009A01911A6C42F080521A641B6C03F0B3
:1017880080530193019B02B0704700BF00380240AC
:101798007047FEE7FEE7FEE7FEE7704770477047D1
:1017A800FEF7FCBE0F49D1F8883043F47003C1F846
:1017B80088300D4B1A68002042F001021A609860C8
:1017C8001A6822F0847222F480321A60074A5A603A
:1017D8001A6822F480221A60D8604FF000638B6088
:1017E800704700BF00ED00E00038024010300024D0
:1017F8000368B3F1804F82B00BD100230193064BED
:101808001A6C42F001021A641B6C03F00103019385
:10181800019B02B0704700BF003802400268094BC4
:101828009A4282B00BD100230193074B1A6C42F005
:1018380002021A641B6C03F002030193019B02B0BD
:10184800704700BF000400400038024070B50446ED
:1018580088B01422002103A800F02CF92368B3F102
:10186800804F2DD103F50E33002400941A6B2048C5
:1018780042F001021A631A6B02F001020092009A08
:1018880001941A6B42F002021A631B6B03F0020305
:101898000193019B02264FF40043012503A90393FA
:1018A80004960795FFF730F8082312480393049627
:1018B80005940694079503A9FFF726F808B070BDAC
:1018C8000D4A9342FAD1002302930C4B08481A6B35
:1018D80042F001021A631B6B03F001030293029B9F
:1018E8008023039302230493079303A9E4E700BF2B
:1018F800000002400004024000040040003802409A
:1019080010B58EB01022002103A8002400F0D2F8F0
:101918001C2221460DEB02000194029400F0CAF843
:1019280020484FF0804380E818008460C460046158
:101938008461FFF741FC08B1FFF79EFE4FF4805326
:1019480003A918480393FFF70DFD08B1FFF794FEAC
:101958001448FFF74BFC08B1FFF78EFE002401A9DD
:10196800104801940294FFF791FD08B1FFF784FE37
:101978006023002207A90B480793089409940B9445
:10198800FFF784FC08B1FFF777FE042207A9054892
:10199800FFF77CFC08B1FFF76FFE0248FFF756FF20
:1019A8000EB010BD0C01002010B500248AB01C2216
:1019B800214603A80194029400F07CF81448154BC2
:1019C800846080E81800C46004618461FFF70EFC3D
:1019D80008B1FFF751FE01A90D4801940294FFF7E1
:1019E80055FD08B1FFF748FE602303930422002346
:1019F80003A90748049305930793FFF747FC08B129
:101A0800FFF73AFE0248FFF721FF0AB010BD00BFFA
:101A1800CC00002000040040DFF834D0002103E0AF
:101A28000C4B5B58435004310B480C4B42189A42FC
:101A3800F6D30B4A02E0002342F8043B094B9A42D2
:101A4800F9D3FFF7AFFE00F011F8FFF705FE704776
:101A580000000520041B0008000000200C000020E6
:101A68000C0000204C010020FEE7000070B50D4E70
:101A78000D4CA41BA4100025A54209D10B4E0C4CFB
:101A880000F020F8A41BA4100025A54205D170BDC4
:101A980056F8253098470135EEE756F8253098472F
:101AA8000135F2E7FC1A0008FC1A0008FC1A0008C5
:101AB800001B000802440346934200D1704703F814
:101AC800011BF9E7F8B500BFF8BC08BC9E46704793
:0C1AD800F8B500BFF8BC08BC9E46704783
:101AE40000000000000000000102030406070809CA
:081AF40054E7FF7F0100000030
:041AFC00FD010008E0
:041B0000D9010008FF
:0C1B040001000000100000000024F400AC
:0400000508001A21B4
:00000001FF
